:1000000045C0000060C000005EC000005CC0000091
:100010005AC0000058C0000056C0000054C0000084
:1000200052C0000050C000004EC000004CC0000094
:100030004AC0000048C0000046C0000044C00000A4
:1000400042C0000040C0000004C100003CC00000ED
:100050003AC0000038C0000036C0000034C00000C4
:1000600032C0000030C000002EC000002CC00000D4
:100070002AC0000028C0000026C0000024C00000E4
:1000800022C0000020C000001EC0000011241FBEBE
:10009000CFEFD0E1DEBFCDBF11E0A0E0B1E0E2E202
:1000A000F5E000E00BBF02C007900D92A030B10751
:1000B000D9F721E0A0E0B1E001C01D92A530B20760
:1000C000E1F7AFD12CC29CCF5D9BFECF8CB90895D8
:1000D00090919B0095FFFCCF80939C0008950F9317
:1000E0001F93CF93DF938C01C0E0D0E006C0F801EE
:1000F000EC0FFD1F8081ECDF2196F80101900020BC
:10010000E9F73197E01BF10BCE17DF0780F3DF91A2
:10011000CF911F910F910895EF92FF920F931F932C
:10012000CF93DF938C019C01ADECBCECB6D1AC015C
:10013000569547955695479556954795CA01880F08
:10014000991F440F551F440F551F440F551F480F4B
:10015000591FC801841B950BAC019FD1EC01D695AA
:10016000C795D695C795D695C7959E0196D1FC01A2
:10017000F695E795F695E795F695E795CF01880F03
:10018000991FEE0FFF1FEE0FFF1FEE0FFF1FE80F6F
:10019000F91FCE018E1B9F0BFC0198013695279508
:1001A00036952795ABE7B4E178D17C01F694E794D6
:1001B0009701ADECBCEC71D1EC01D695C795D69505
:1001C000C795D695C795CE01880F991FCC0FDD1F17
:1001D000CC0FDD1FCC0FDD1FC80FD91FC7018C1B33
:1001E0009D0BEC0198013695279536952795369508
:1001F0002795A5ECB0E251D1929582958F70892711
:100200009F70892780618BBB8FEC97E00197F1F796
:1002100000C00000C062CBBB8FEC97E00197F1F704
:1002200000C00000E064EBBB8FEC97E00197F1F7B2
:1002300000C0000040684BBB8FEC97E00197F1F7DE
:1002400000C00000DF91CF911F910F91FF90EF90C0
:1002500008951F920F920FB60F9211240BB60F92B2
:100260002F933F934F935F936F937F938F939F93BE
:10027000AF93BF93EF93FF938CB180930001809174
:100280000001823321F488B3816088BB07C080916C
:100290000001813319F488B38E7F88BB80910001FF
:1002A00013DFFF91EF91BF91AF919F918F917F915C
:1002B0006F915F914F913F912F910F900BBE0F90D7
:1002C0000FBE0F901F901895CF93DF9300D000D0F2
:1002D0001F92CDB7DEB7682FFE01319695E0DF01A2
:1002E0001D929A95E9F7A1E6B0E09C9192609C93EB
:1002F000E2E6F0E09081926090832FEF80E792E059
:10030000215080409040E1F700C0000090819D7F27
:1003100090838FE99CE80197F1F700C0000090817D
:100320009260908392E09A95F1F700C09C919D7F36
:100330009C93A8E6AA95F1F701995AC0B5EDBA9534
:10034000F1F70000019B56C025ED2A95F1F700005A
:1003500070E023C0019BFECFA0E5AA95F1F7019BB9
:100360000CC047E050E0491B510921E030E002C0D9
:10037000220F331F4A95E2F7822B0199FECF9F5F30
:1003800002C080E090E0983028F3E1E0F0E0EC0F6C
:10039000FD1FE70FF11D80837F5F753090F3E1E66D
:1003A000F0E0808182608083E2E6F0E0808182601C
:1003B0008083BFEF20E782E0B15020408040E1F72A
:1003C00000C0000099812A8130E0290F311D8B8106
:1003D000280F311D4C81240F311D4D8150E0241711
:1003E000350751F4662359F0613041F08FEF07C0B3
:1003F0008FEF05C08FEF03C08FEF01C0892F0F90E3
:100400000F900F900F900F90DF91CF910895CF93A1
:10041000DF93EB0159DF8F3F09F08883DF91CF91A4
:100420000895CF93DF9300D0CDB7DEB78FEF8ABBAF
:1004300087BB1092900083E389B910929800809353
:1004400099001BB896E09093950088E98AB91092BC
:100450009B0090939D0080939A00789419821A8251
:10046000BE016F5F7F4F80E0D2DFBE016E5F7F4FC6
:1004700081E0CDDF89810A8110E094E6899F000D3B
:10048000111D1124C80148DE4AE061E071E0C80195
:1004900013D081E091E023DEE3CFA29FB001B39FB0
:1004A000C001A39F700D811D1124911DB29F700D7D
:1004B000811D1124911D0895BB274A3031F49923E1
:1004C00022F4BDE2909581959F4F01C0BB27FB01AF
:1004D0005527AA27880F991FAA1FA41710F0A41B3D
:1004E00083955051B9F7A05DAA3308F0A95DA19397
:1004F000009779F7B111B1931192CB0100C0DC01E3
:10050000FC01672F71917723E1F7329704C07C914A
:100510006D9370836291AE17BF07C8F30895F89486
:02052000FFCF0B
:00000001FF
