:1000000045C0000053C0000051C000004FC00000B8
:100010004DC000004BC0000049C0000047C00000B8
:1000200045C0000043C0000041C000003FC00000C8
:100030003DC000003BC0000039C0000037C00000D8
:1000400035C0000033C0000044C000002FC00000D5
:100050002DC000002BC0000029C0000027C00000F8
:1000600025C0000023C0000021C000001FC0000008
:100070001DC000001BC0000019C0000017C0000018
:1000800015C0000013C0000011C0000011241FBEE5
:10009000CFEFD0E1DEBFCDBF21E0A0E0B1E001C0F5
:1000A0001D92A130B207E1F706D04EC0A9CF5D9BEB
:1000B000FECF8CB908958FEF87BB1092900083E339
:1000C00089B91BB886E08093950088E98AB978944D
:1000D000FFCF1F920F920FB60F9211240BB60F9203
:1000E0002F933F934F935F936F937F938F939F9340
:1000F000AF93BF93EF93FF938CB1809300018091F6
:100100000001813321F488B3816088BB07C08091EE
:100110000001823319F488B38E7F88BB809100017F
:10012000C6DFFF91EF91BF91AF919F918F917F912A
:100130006F915F914F913F912F910F900BBE0F9058
:0C0140000FBE0F901F901895F894FFCF91
:00000001FF
