:1000000045C0000060C000005EC000005CC0000091
:100010005AC0000058C0000056C0000054C0000084
:1000200052C0000050C000004EC000004CC0000094
:100030004AC0000048C0000046C0000044C00000A4
:1000400042C0000040C0000088C100003CC0000069
:100050003AC0000038C0000036C0000034C00000C4
:1000600032C0000030C000002EC000002CC00000D4
:100070002AC0000028C0000026C0000024C00000E4
:1000800022C0000020C000001EC0000011241FBEBE
:10009000CFEFD0E1DEBFCDBF11E0A0E0B1E0ECE9F1
:1000A000F6E000E00BBF02C007900D92A430B1074C
:1000B000D9F721E0A4E0B1E001C01D92A730B2075A
:1000C000E1F7F1D0E9C29CCF5D9BFECF8CB90895DA
:1000D00090919B0095FFFCCF80939C0008950F9317
:1000E0001F93CF93DF938C01FC0101900020E9F76F
:1000F0003197E81BF90B319751F4FC018081818322
:10010000E0910001F09101018081F8018083C0E05D
:10011000D0E006C0F801EC0FFD1F8081D9DF2196E9
:10012000F80101900020E9F73197E01BF10BCE17A1
:10013000DF0780F3DF91CF911F910F91089597B161
:10014000907F97B997B1892B87B986B1806486B9BA
:10015000349BFECF2FE788E391E021508040904010
:10016000E1F700C0000084B195B10895EF92FF92CD
:100170000F931F93CF93DF938C019C01ADECBCECEC
:1001800049D2AC0156954795569547955695479552
:10019000CA01880F991F440F551F440F551F440F64
:1001A000551F480F591FC801841B950BAC0132D253
:1001B000EC01D695C795D695C795D695C7959E015E
:1001C00029D2FC01F695E795F695E795F695E79522
:1001D000CF01880F991FEE0FFF1FEE0FFF1FEE0FCD
:1001E000FF1FE80FF91FCE018E1B9F0BFC0198012A
:1001F0003695279536952795ABE7B4E10BD27C0170
:10020000F694E7949701ADECBCEC04D2EC01D695E2
:10021000C795D695C795D695C795CE01880F991FD6
:10022000CC0FDD1FCC0FDD1FCC0FDD1FC80FD91F7A
:10023000C7018C1B9D0BEC019801369527953695CF
:10024000279536952795A5ECB0E2E4D19295829555
:100250008F7089279F70892780618BBB8FEC97E017
:100260000197F1F700C00000C062CBBB8FEC97E0B4
:100270000197F1F700C00000E064EBBB8FEC97E062
:100280000197F1F700C0000040684BBB8FEC97E08E
:100290000197F1F700C00000DF91CF911F910F91FE
:1002A000FF90EF9008958FEF8ABB87BB109290006C
:1002B00083E389B910929800809399001BB886E077
:1002C0008093950098E99AB910929B0080939D00C5
:1002D000EAE9F0E080818864808387B1806487B92F
:1002E00086B1856886B9789480E090E028DFEC01DB
:1002F00081E090E024DFBE01660F771F660F771F55
:100300006C0F7D1F80E090E0F7D024E13EEA43E2ED
:1003100051E45ED0C5D06B017C01CB0127DF2FEF0C
:1003200084E39CE0215080409040E1F700C0000051
:100330008D2F90E01BDF2FEF84E39CE02150804065
:100340009040E1F700C000004AE064E071E0C601BF
:1003500070D184E091E0C3DEC7CF1F920F920FB639
:100360000F9211240BB60F922F933F934F935F93ED
:100370006F937F938F939F93AF93BF93EF93FF936D
:100380008CB18093060180910601823321F488B3F9
:10039000816088BB07C080910601813319F488B35E
:1003A0008E7F88BB809106018FDEFF91EF91BF9118
:1003B000AF919F918F917F916F915F914F913F91FD
:1003C0002F910F900BBE0F900FBE0F901F9018959E
:1003D0000CD0E6C0DED040F0D5D030F021F45F3F45
:1003E00019F0C7C0511110C1CAC0EBD098F39923BE
:1003F000C9F35523B1F3951B550BBB27AA276217E9
:100400007307840738F09F5F5F4F220F331F441F2D
:10041000AA1FA9F333D00E2E3AF0E0E830D0915065
:100420005040E695001CCAF729D0FE2F27D0660F52
:10043000771F881FBB1F261737074807AB07B0E891
:1004400009F0BB0B802DBF01FF2793585F4F2AF0A7
:100450009E3F510568F08DC0D7C05F3FECF3983EDA
:10046000DCF3869577956795B795F7959F5FC9F704
:10047000880F911D9695879597F90895E1E0660F8D
:10048000771F881FBB1F621773078407BA0720F006
:10049000621B730B840BBA0BEE1F88F7E09508956F
:1004A00098D088F09F5790F0B92F9927B751A0F0B6
:1004B000D1F0660F771F881F991F1AF0BA95C9F7F8
:1004C00012C0B13081F09FD0B1E008959CC0672F79
:1004D000782F8827B85F39F0B93FCCF386957795A8
:1004E0006795B395D9F73EF4909580957095619591
:1004F0007F4F8F4F9F4F0895E89409C097FB3EF4BC
:1005000090958095709561957F4F8F4F9F4F992360
:10051000A9F0F92F96E9BB279395F69587957795DE
:100520006795B795F111F8CFFAF4BB0F11F460FF9E
:100530001BC06F5F7F4F8F4F9F4F16C0882311F0F6
:1005400096E911C0772321F09EE8872F762F05C00A
:10055000662371F096E8862F70E060E02AF09A95A5
:10056000660F771F881FDAF7880F9695879597F99A
:10057000089597F99F6780E870E060E008959FEF25
:1005800080EC089500240A9416161706180609062A
:10059000089500240A9412161306140605060895F9
:1005A000092E0394000C11F4882352F0BB0F40F481
:1005B000BF2B11F460FF04C06F5F7F4F8F4F9F4FC1
:1005C000089557FD9058440F551F59F05F3F71F043
:1005D0004795880F97FB991F61F09F3F79F08795AA
:1005E0000895121613061406551FF2CF4695F1DF33
:1005F00008C0161617061806991FF1CF86957105C3
:10060000610508940895E894BB2766277727CB01F6
:1006100097F90895A29FB001B39FC001A39F700DE9
:10062000811D1124911DB29F700D811D1124911DFA
:100630000895BB274A3031F4992322F4BDE2909506
:1006400081959F4F01C0BB27FB015527AA27880F23
:10065000991FAA1FA41710F0A41B83955051B9F736
:10066000A05DAA3308F0A95DA193009779F7B111B5
:10067000B1931192CB0100C0DC01FC01672F719195
:100680007723E1F7329704C07C916D937083629178
:0C069000AE17BF07C8F30895F894FFCF21
:04069C000201300027
:00000001FF
