:100000000C94C7000C94E6000C94E6000C94E600F7
:100010000C94E6000C94E6000C94E6000C94E600C8
:100020000C94E6000C94E6000C94E6000C94E600B8
:100030000C942A060C94E6000C94E6000C94E6005E
:100040000C94E6000C94E6000C949B060C94E600DD
:100050000C94E6000C94E6000C94E6000C94E60088
:100060000C94E6000C94E6000C94E6000C94E60078
:100070000C94E6000C94E6000C94E6000C94E60068
:100080000C94E6000C94E6000C94E6006E616E00A1
:10009000696E660000407A10F35A00A0724E18098B
:1000A0000010A5D4E80000E87648170000E40B54DF
:1000B000020000CA9A3B000000E1F50500008096AE
:1000C0009800000040420F000000A08601000000E0
:1000D000102700000000E80300000000640000009A
:1000E00000000A00000000000100000000002C7663
:1000F000D888DC674F0823DFC1DFAE59E1B1B7967E
:10010000E5E3E453C63AE651997696E8E6C28426DA
:10011000EB898C9B62ED407C6FFCEFBC9C9F40F2B6
:10012000BAA56FA5F490055A2AF75C936B6CF96732
:100130006DC11BFCE0E40D47FEF520E6B500D0EDF7
:10014000902E0300943577050080841E080000205F
:100150004E0A000000C80C333333330F986E1283FD
:100160001141EF8D2114893BE65516CFFEE6DB18D1
:10017000D1844B381BF77C1D901DA4BBE424203296
:1001800084725E228100C9F124ECA1E53D2711248F
:100190001FBECFEFD0E1DEBFCDBF11E0A0E0B1E0E8
:1001A000E8E9F7E100E00BBF02C007900D92A6322C
:1001B000B107D9F721E0A6E2B1E001C01D92A13458
:1001C000B207E1F70E94FA050C94CA0B0C940000E8
:1001D0002F923F924F925F926F927F928F929F9257
:1001E000AF92BF92CF92DF92EF92FF920F931F9345
:1001F000CF93DF93CDB7DEB760970FB6F894DEBF2D
:100200000FBECDBF7C011B016A01FC011782168263
:10021000838181FF44C39E012F5F3F4F3901F70166
:100220009381F10193FD859193FF81911F018823B3
:1002300009F431C3853239F493FD859193FF81919F
:100240001F01853239F4B70190E00E94E70A560198
:100250006501E5CF10E0512C912CFFE1F915D8F0A4
:100260008B3279F038F4803279F08332A1F4F92DB1
:10027000F0612EC08D3261F0803369F4292D216048
:100280002DC0392D3260932E892D8460982E2AC07E
:10029000E92DE86015C097FC2DC020ED280F2A300D
:1002A00088F496FE06C03AE0139F200D1124122F09
:1002B00019C08AE0589E200D1124522EE92DE062CB
:1002C0009E2E10C08E3231F496FCE5C2F92DF064FA
:1002D0009F2E08C08C3621F4292D2068922E02C052
:1002E000883641F4F10193FD859193FF81911F01BF
:1002F0008111B3CF9BEB980F933020F4992D90612F
:10030000805E07C09BE9980F933008F066C1992D75
:100310009F7E96FF16E09F73992E853619F49064A0
:10032000992E08C0863621F4392F3068932E02C0EA
:100330001111115097FE07C01C3350F4442443940C
:10034000410E27E00BC0183038F027E017E005C059
:1003500027E09CE3492E02C0212F412C560184E066
:10036000A80EB11CF6016081718182819381042DF8
:10037000A3010E94D4096C01F981FC87F0FF02C03F
:10038000F3FF06C091FC06C092FE06C000E205C065
:100390000DE203C00BE201C000E08C858C7019F007
:1003A00001115AC29BC297FE10C04C0CFC85F4FF91
:1003B00004C08A81813309F44A94141474F528E046
:1003C000241578F588E0482E2CC096FC2AC0812F91
:1003D00090E08C159D059CF03CEFC3163FEFD306D3
:1003E00074F0892D8068982E0AC0E2E0F0E0EC0FEE
:1003F000FD1FE10FF11D8081803319F4115011119F
:10040000F4CF97FE0EC044244394410E812F90E018
:10041000C816D9062CF41C1904C04424439401C006
:1004200010E097FE06C01C141D0434F4C6010196AA
:1004300005C085E090E002C081E090E001110196E6
:10044000112331F0212F30E02F5F3F4F820F931F98
:10045000252D30E08217930714F4581A01C0512C4F
:10046000892D897049F4552039F0B70180E290E078
:100470000E94E70A5A94F7CF002329F0B701802F92
:1004800090E00E94E70A93FC09C0552039F0B701BB
:1004900080E390E00E94E70A5A94F7CF97FE4CC0A1
:1004A0004601D7FE02C0812C912CC60188199909FA
:1004B000F301E80FF91FFE87ED8796012419310932
:1004C000388B2F87012F10E01195019511093FEF0F
:1004D0008316930629F4B7018EE290E00E94E70AA2
:1004E000C814D9044CF08F8598898815990524F48F
:1004F000ED85FE85818101C080E3F1E08F1A9108CE
:100500002D853E852F5F3F4F3E872D8780169106B4
:100510002CF0B70190E00E94E70AD9CFC814D904A3
:1005200041F49A81963320F4953319F43C8534FFD5
:1005300081E3B70190E04EC08A81813319F09C8538
:100540009F7E9C87B70190E00E94E70A111105C0C9
:1005500094FC18C085E690E017C0B7018EE290E0E9
:100560000E94E70A1E5F82E001E0080FF301E80F36
:10057000F11D8081B70190E00E94E70A802F0113EE
:10058000F3CFE6CF85E490E0B7010E94E70AD7FCFD
:1005900006C0C114D10441F4EC85E4FF05C0D19438
:1005A000C194D1088DE201C08BE2B70190E00E94B6
:1005B000E70A80E32AE0C216D1042CF08F5FFAE04C
:1005C000CF1AD108F7CFB70190E00E94E70AB70130
:1005D000C601C0960E94E70A54C1833631F08337C2
:1005E00079F0833509F056C020C0560132E0A30EE1
:1005F000B11CF6018081898301E010E0630112C023
:100600005601F2E0AF0EB11CF601C080D18096FE1B
:1006100003C0612F70E002C06FEF7FEFC6010E9440
:10062000B70A8C01F92DFF7714C0560122E0A20E03
:10063000B11CF601C080D18096FE03C0612F70E02E
:1006400002C06FEF7FEFC6010E94AC0A8C01F92D4A
:10065000F0689F2EF3FD1AC0852D90E0081719074A
:10066000A8F4B70180E290E00E94E70A5A94F4CF20
:10067000F60197FC859197FE81916F01B70190E09B
:100680000E94E70A51105A940150110901151105F1
:1006900079F7F7C0843611F0893661F5560197FE77
:1006A00009C024E0A20EB11CF60160817181828133
:1006B00093810AC0F2E0AF0EB11CF6016081718136
:1006C000072E000C880B990BF92DFF769F2E97FFB4
:1006D00009C090958095709561957F4F8F4F9F4F82
:1006E000F0689F2E2AE030E0A3010E945C0BC82E28
:1006F000C6183FC0092D853721F40F7E2AE030E06F
:100700001DC0097F8F3691F018F4883559F0C3C0A9
:10071000803719F0883711F0BEC0006104FF09C0AE
:10072000046007C094FE08C0066006C028E030E000
:1007300005C020E130E002C020E132E0560107FFB1
:1007400009C084E0A80EB11CF6016081718182812C
:10075000938108C0F2E0AF0EB11CF6016081718197
:1007600080E090E0A3010E945C0BC82EC6180F77B2
:10077000902E96FE0BC0092D0E7FC11650F494FEEC
:100780000AC092FC08C0092D0E7E05C0DC2C092D84
:1007900003C0DC2C01C0D12E04FF0DC0FE01EC0D06
:1007A000F11D8081803311F4097E09C002FF06C06B
:1007B000D394D39404C0802F867809F0D39403FD9A
:1007C00011C000FF06C01C2DD51480F4150D1D1995
:1007D0000DC0D51458F4B70180E290E00E94E70AFA
:1007E000D394F7CFD51410F45D1801C0512C04FF39
:1007F00010C0B70180E390E00E94E70A02FF17C033
:1008000001FD03C088E790E002C088E590E0B701F1
:100810000CC0802F867859F001FF02C08BE201C026
:1008200080E207FD8DE2B70190E00E94E70AC11661
:1008300038F4B70180E390E00E94E70A1150F7CF47
:10084000CA94F301EC0DF11D8081B70190E00E9484
:10085000E70AC110F5CF15C0F4E0F51560F584E0A6
:10086000581A93FE1FC0011127C02C8523FF2AC0F0
:100870000CE810E0392D3071932EF801849181112C
:1008800024C0552009F4E4CCB70180E290E00E9436
:10089000E70A5A94F6CFF7018681978126C08FEF39
:1008A0009FEF23C0B70180E290E00E94E70A5A94CC
:1008B0005110F8CFD8CF512CB701802F90E00E9473
:1008C000E70AD3CF00E910E0D5CF91108052B701ED
:1008D00090E00E94E70A0F5F1F4FCFCF23E025155E
:1008E00010F483E0BDCF512CC0CF60960FB6F894C2
:1008F000DEBF0FBECDBFDF91CF911F910F91FF9053
:10090000EF90DF90CF90BF90AF909F908F907F90AF
:100910006F905F904F903F902F9008958FEF9FE8DA
:100920000197F1F700C000001092400108958091F6
:1009300040010895AF92BF92CF92DF92EF92FF9263
:100940000F931F93CF93DF9300D000D01F92CDB7AA
:10095000DEB7FE01319625E0DF011D922A95E9F709
:1009600010924001209162002D7F2093620020911F
:100970006100226020936100AFEFBFE81197F1F7AB
:1009800000C000002091620022602093620020914C
:1009900061002D7F209361002FE1019B08C0B5E02D
:1009A000BA95F1F72150C9F724E020934001209136
:1009B0004001211116C023E3019908C035E03A95A2
:1009C000F1F72150C9F724E02093400123E3019B74
:1009D00008C045E04A95F1F72150C9F724E020937B
:1009E00040012091400121113FC030E0C12CD12CA9
:1009F0007601C39444E0A42E27E044E2019909C0A3
:100A000055E05A95F1F74150C9F7A09240012FEFF8
:100A100035E040914001411121C0A6E5AA95F1F7CA
:100A20000000019B11C08F01030F111DD801BC9064
:100A3000B701A601022E04C0440F551F661F771F81
:100A40000A94D2F74B294C9343E3019B07C0B5E0CE
:100A5000BA95F1F74150C9F7A0924001215027FF04
:100A6000CCCF3F5F353040F220914001211116C0BC
:100A700039812A81230F3B81230F3C81230F3D8144
:100A8000231721F083E08093400108C0DC01CE01F0
:100A9000059621912D93E817F907D9F78091400128
:100AA0000F900F900F900F900F90DF91CF911F91AB
:100AB0000F91FF90EF90DF90CF90BF90AF9008958F
:100AC000EF92FF920F931F93CF93DF9300D000D04C
:100AD000CDB7DEB78C017B0119821A821B821C8282
:100AE000CE0101960E949A04811148C08C816B81CD
:100AF0007C817627672776279B8197FF0FC09F779A
:100B0000682F70E0792B072E000C880B990B0E9440
:100B1000DB0820E030E040E251EC0AC0072E000C78
:100B2000880B990B0E94DB0820E030E040E251E4A2
:100B30000E9438080E94AA08F801608369817A81BE
:100B4000762767277627072E000C880B990B0E94C3
:100B5000DB0820E030E040E251E40E9438080E94C7
:100B6000AA08F7016083F8018081813510F082E0E6
:100B700003C0653618F081E0809340018091400108
:100B80000F900F900F900F90DF91CF911F910F91C9
:100B9000FF90EF90089560E070E00C946005BC0158
:100BA00080E090E00C946005682F70E080E090E0B9
:100BB0000E94DB0826E636E646EE5FE30E94670900
:100BC00020E030E040E052E40E94CC070E94AA08F6
:100BD000862F0895682F70E080E090E00E94DB0887
:100BE00023E333E948E853E40E94CC070E94AA08B3
:100BF000862F08950E949C070E942F070E94A3073A
:100C00000E949207789481E40E94B00786E50E94D2
:100C1000B00782E50E94B0078DE00E94B0078AE02D
:100C20000E94B0070E945C0761E081E00E945107CA
:100C300080E091E09F938F930E947A072FEF8FE3DC
:100C40009BE0215080409040E1F700C000000F90F1
:100C50000F90FFCF1F920F920FB60F9211240BB679
:100C60000F922F933F934F935F936F937F938F9345
:100C70009F93AF93BF93EF93FF9369E371E087E393
:100C800091E00E9460050E949704811141C098B3D1
:100C900080E4892788BB209137018091390190E059
:100CA00034E6239F800D911D112490933F01809382
:100CB0003E014AE06AE371E00E94C20A0E945C07BA
:100CC00061E081E00E945107809137011F928F936C
:100CD00089E091E09F938F930E947A0761E082E020
:100CE0000E945107809139011F928F9383E191E017
:100CF0009F938F930E947A078AE391E00E94B40742
:100D00008DB79EB708960FB6F8949EBF0FBE8DBFE5
:100D1000FF91EF91BF91AF919F918F917F916F91D3
:100D20005F914F913F912F910F900BBE0F900FBE8F
:100D30000F901F9018951F920F920FB60F921124CB
:100D40000BB60F922F933F934F935F936F937F93C5
:100D50008F939F93AF93BF93EF93FF930E94C70727
:100D60008093380180913801882349F10E945C0703
:100D700080913801823311F4C69A0DC080913801F8
:100D8000813311F4C69807C080913801823619F476
:100D900088B3805888BB0E945C0761E081E00E94B4
:100DA0005107809138011F928F938DE191E09F93BD
:100DB0008F930E947A070F900F900F900F90FF91E2
:100DC000EF91BF91AF919F918F917F916F915F91C3
:100DD0004F913F912F910F900BBE0F900FBE0F9030
:100DE0001F9018958BB3806F8BBB8AB38F708ABBB3
:100DF000DA9ADA9A29B3DA98DA9ADA9A99B3DA9817
:100E0000207F892F82958F70822B08952BB32F70AE
:100E1000982F907F922B9BBBDA9ADA9830E1839FD0
:100E2000C0011124822B8BBBDA9ADA9808958BBB10
:100E3000DA9ADA980895CF93DF931F92CDB7DEB791
:100E4000D898D99A0E94F2068983898187FDF8CFC4
:100E5000D9988FEF8ABB0F90DF91CF9108958FEFD4
:100E60008ABB8ABBD898D998DA98DA9ADD9ADA9848
:100E70000E941B0788E20E9406070E941B07D89861
:100E80008EE00E9406070E941B07D89886E00E9409
:100E900006070C941B07D89882E00E9406070C9462
:100EA0001B07D89890E4899F600D1124862F815CE0
:100EB0000E9406070C941B07D89881E00E94060741
:100EC0000C941B07D89A0E9406070C941B070F93DB
:100ED0001F93CF938C01C0E0F801EC0FF11D8081CE
:100EE000882321F00E946207CF5FF6CFCF911F9138
:100EF0000F910895CF93DF93CDB7DEB79E012B5F9F
:100F00003F4FF901419151919F0161E170E086E20B
:100F100091E00E94230B86E291E00E946707DF9137
:100F2000CF9108951092900083E089B986E0809374
:100F3000950088E98AB90895BE9ABF9AC698C79A5B
:100F4000BD98C59A08951FBC85E08EBD1DBC1CBC14
:100F500080E29CE19BBD8ABD87B7806187BF089511
:100F60005D9BFECF8CB908950F931F93CF93DF93B2
:100F7000EC018C010C5F1F4F89910E94B007C017D4
:100F8000D107D1F7DF91CF911F910F9108955F9B0A
:100F9000FECF8CB108955058BB27AA270E94E307C3
:100FA0000C942D090E941F0938F00E94260920F098
:100FB00039F49F3F19F426F40C941C090EF4E095C3
:100FC000E7FB0C941609E92F0E943E0958F3BA1763
:100FD000620773078407950720F079F4A6F50C944F
:100FE00060090EF4E0950B2EBA2FA02D0B01B9016C
:100FF00090010C01CA01A0011124FF27591B99F08F
:10100000593F50F4503E68F11A16F040A22F232F9A
:10101000342F4427585FF3CF469537952795A795EA
:10102000F0405395C9F77EF41F16BA0B620B730B91
:10103000840BBAF09150A1F0FF0FBB1F661F771F02
:10104000881FC2F70EC0BA0F621F731F841F48F4B7
:10105000879577956795B795F7959E3F08F0B0CF40
:101060009395880F08F09927EE0F97958795089527
:101070000E944C080C942D090E94260958F00E94E9
:101080001F0940F029F45F3F29F00C941609511113
:101090000C9461090C941C090E943E0968F3992381
:1010A000B1F3552391F3951B550BBB27AA27621764
:1010B0007307840738F09F5F5F4F220F331F441F71
:1010C000AA1FA9F335D00E2E3AF0E0E832D09150A5
:1010D0005040E695001CCAF72BD0FE2F29D0660F92
:1010E000771F881FBB1F261737074807AB07B0E8D5
:1010F00009F0BB0B802DBF01FF2793585F4F3AF0DB
:101100009E3F510578F00C9416090C9461095F3FDD
:10111000E4F3983ED4F3869577956795B795F79560
:101120009F5FC9F7880F911D9695879597F9089548
:10113000E1E0660F771F881FBB1F621773078407E4
:10114000BA0720F0621B730B840BBA0BEE1F88F7F3
:10115000E09508950E94460988F09F5798F0B92FAE
:101160009927B751B0F0E1F0660F771F881F991FDC
:101170001AF0BA95C9F714C0B13091F00E94600915
:10118000B1E008950C946009672F782F8827B85F25
:1011900039F0B93FCCF3869577956795B395D9F734
:1011A0003EF490958095709561957F4F8F4F9F4F3E
:1011B0000895E89409C097FB3EF49095809570954A
:1011C00061957F4F8F4F9F4F9923A9F0F92F96E993
:1011D000BB279395F695879577956795B795F11108
:1011E000F8CFFAF4BB0F11F460FF1BC06F5F7F4FA5
:1011F0008F4F9F4F16C0882311F096E911C07723B7
:1012000021F09EE8872F762F05C0662371F096E8BF
:10121000862F70E060E02AF09A95660F771F881F8E
:10122000DAF7880F9695879597F9089597F99F674C
:1012300080E870E060E008959FEF80EC089500245E
:101240000A941616170618060906089500240A942B
:1012500012161306140605060895092E0394000CB1
:1012600011F4882352F0BB0F40F4BF2B11F460FF40
:1012700004C06F5F7F4F8F4F9F4F089557FD905869
:10128000440F551F59F05F3F71F04795880F97FB4A
:10129000991F61F09F3F79F0879508951216130604
:1012A0001406551FF2CF4695F1DF08C01616170633
:1012B0001806991FF1CF8695710561050894089568
:1012C000E894BB2766277727CB0197F908950E94FA
:1012D0007A090C942D090E941F0938F00E942609F2
:1012E00020F0952311F00C9416090C941C0911247C
:1012F0000C9461090E943E0970F3959FC1F3950F0C
:1013000050E0551F629FF001729FBB27F00DB11D89
:10131000639FAA27F00DB11DAA1F649F6627B00D19
:10132000A11D661F829F2227B00DA11D621F739F02
:10133000B00DA11D621F839FA00D611D221F749F10
:101340003327A00D611D231F849F600D211D822F57
:10135000762F6A2F11249F5750409AF0F1F088237E
:101360004AF0EE0FFF1FBB1F661F771F881F9150AB
:101370005040A9F79E3F510580F00C9416090C943B
:1013800061095F3FE4F3983ED4F3869577956795BE
:10139000B795F795E7959F5FC1F7FE2B880F911DD5
:1013A0009695879597F90895283008F027E0332718
:1013B000DA01990F311D87FD916000966105710575
:1013C00039F432602E5F3D9330E32A95E1F70895BA
:1013D0009F3F30F080387105610509F03C5F3C5F4C
:1013E0003D93913008F08068911DDF93CF931F9358
:1013F0000F93FF92EF92192F987F9695E92F96956C
:101400009695E90FFF27E251FF4F99273327EE24E6
:10141000FF24A701E70105900894079428F4360FEC
:10142000E71EF81E491F511D660F771F881F991F61
:101430000694A1F70590079428F4E70EF81E491FBB
:10144000561FC11D770F881F991F661F0694A1F7AD
:101450000590079428F4F80E491F561FC71FD11D89
:10146000880F991F661F771F0694A1F705900794B0
:1014700020F4490F561FC71FD81F990F661F771FEB
:10148000881F0694A9F784911095177041F0D6959E
:10149000C79557954795F794E7941A95C1F7E4E9EE
:1014A000F0E06894159015913591659195910590AE
:1014B0007FE27395E118F10A430B560BC90BD00973
:1014C000C0F7E10CF11E431F561FC91FD01D7EF44B
:1014D000703311F48A95E6CFE894015030F0080F8C
:1014E0000AF40027021708F4202F2395022F7A33DD
:1014F00028F079E37D932A95E9F710C07D932A952A
:1015000089F6069497956795379517951794E1187E
:10151000F10A430B560BC90BD00998F023957E9125
:1015200073957A3308F070E37C932013B8F77E91BB
:1015300070617D9330F0839571E37D9370E32A951C
:10154000E1F71124EF90FF900F911F91CF91DF9160
:10155000992787FD90950895FC0105906150704092
:101560000110D8F7809590958E0F9F1F0895FC016C
:101570006150704001900110D8F7809590958E0FC2
:101580009F1F0895BB274A3031F4992322F4BDE20E
:10159000909581959F4F0C94CE0ABB27FB01552750
:1015A000AA27880F991FAA1FA41710F0A41B8395C0
:1015B0005051B9F7A05DAA3308F0A95DA193009737
:1015C00079F7B111B1931192CB010C94BA0B0F932F
:1015D0001F93CF93DF93FB01238121FD03C08FEF86
:1015E0009FEF2CC022FF16C0468157812481358190
:1015F0004217530744F4A081B1819D012F5F3F4FF3
:10160000318320838C93268137812F5F3F4F37832F
:10161000268314C08B01EC01FB010084F185E02DD1
:101620000995892BE1F6D80116968D919C91179713
:10163000019617969C938E931697CE01DF91CF91CA
:101640001F910F9108950F931F93CF93DF93CDB701
:10165000DEB72E970FB6F894DEBF0FBECDBF8C015C
:10166000FA0186E08C831A83098377FF02C060E069
:1016700070E8CB0101979E838D83A901BF01CE0144
:1016800001960E94E8004D815E8157FD0AC02F81BE
:101690003885421753070CF49A01F801E20FF31F43
:1016A00010822E960FB6F894DEBF0FBECDBFDF912D
:1016B000CF911F910F910895FA01AA27283051F177
:1016C000203181F1E8946F936E7F6E5F7F4F8F4F73
:1016D0009F4FAF4FB1E03ED0B4E03CD0670F781FD2
:1016E000891F9A1FA11D680F791F8A1F911DA11DB7
:1016F0006A0F711D811D911DA11D20D009F46894F0
:101700003F912AE0269F11243019305D3193DEF697
:10171000CF010895462F4770405D4193B3E00FD04D
:10172000C9F7F6CF462F4F70405D4A3318F0495D38
:1017300031FD4052419302D0A9F7EACFB4E0A6951B
:101740009795879577956795BA95C9F7009761053D
:10175000710508959B01AC010A2E06945795479593
:1017600037952795BA95C9F7620F731F841F951F88
:10177000A01D0895DC01FC01672F71917723E1F72B
:10178000329704C07C916D9370836291AE17BF074E
:08179000C8F30895F894FFCF9F
:1017980054657374204C43440054656D70203A209E
:1017A80025640048756D69203A20256400446174F9
:0617B800613A20256300E8
:00000001FF
