:100000000C94C7000C94E6000C94E6000C94E600F7
:100010000C94E6000C94E6000C94E6000C94E600C8
:100020000C94E6000C94E6000C94E6000C94E600B8
:100030000C948B060C94E6000C94E6000C94E600FD
:100040000C94E6000C94E6000C9454070C94E60023
:100050000C94E6000C94E6000C94E6000C94E60088
:100060000C94E6000C94E6000C94E6000C94E60078
:100070000C94E6000C94E6000C94E6000C94E60068
:100080000C94E6000C94E6000C94E6006E616E00A1
:10009000696E660000407A10F35A00A0724E18098B
:1000A0000010A5D4E80000E87648170000E40B54DF
:1000B000020000CA9A3B000000E1F50500008096AE
:1000C0009800000040420F000000A08601000000E0
:1000D000102700000000E80300000000640000009A
:1000E00000000A00000000000100000000002C7663
:1000F000D888DC674F0823DFC1DFAE59E1B1B7967E
:10010000E5E3E453C63AE651997696E8E6C28426DA
:10011000EB898C9B62ED407C6FFCEFBC9C9F40F2B6
:10012000BAA56FA5F490055A2AF75C936B6CF96732
:100130006DC11BFCE0E40D47FEF520E6B500D0EDF7
:10014000902E0300943577050080841E080000205F
:100150004E0A000000C80C333333330F986E1283FD
:100160001141EF8D2114893BE65516CFFEE6DB18D1
:10017000D1844B381BF77C1D901DA4BBE424203296
:1001800084725E228100C9F124ECA1E53D2711248F
:100190001FBECFEFD0E1DEBFCDBF11E0A0E0B1E0E8
:1001A000EAE3FEE100E00BBF02C007900D92AA3423
:1001B000B107D9F721E0AAE4B1E001C01D92AB3745
:1001C000B207E1F70E9459060C941B0F0C94000033
:1001D0002F923F924F925F926F927F928F929F9257
:1001E000AF92BF92CF92DF92EF92FF920F931F9345
:1001F000CF93DF93CDB7DEB760970FB6F894DEBF2D
:100200000FBECDBF7C011B016A01FC011782168263
:10021000838181FF44C39E012F5F3F4F3901F70166
:100220009381F10193FD859193FF81911F018823B3
:1002300009F431C3853239F493FD859193FF81919F
:100240001F01853239F4B70190E00E94480E560133
:100250006501E5CF10E0512C912CFFE1F915D8F0A4
:100260008B3279F038F4803279F08332A1F4F92DB1
:10027000F0612EC08D3261F0803369F4292D216048
:100280002DC0392D3260932E892D8460982E2AC07E
:10029000E92DE86015C097FC2DC020ED280F2A300D
:1002A00088F496FE06C03AE0139F200D1124122F09
:1002B00019C08AE0589E200D1124522EE92DE062CB
:1002C0009E2E10C08E3231F496FCE5C2F92DF064FA
:1002D0009F2E08C08C3621F4292D2068922E02C052
:1002E000883641F4F10193FD859193FF81911F01BF
:1002F0008111B3CF9BEB980F933020F4992D90612F
:10030000805E07C09BE9980F933008F066C1992D75
:100310009F7E96FF16E09F73992E853619F49064A0
:10032000992E08C0863621F4392F3068932E02C0EA
:100330001111115097FE07C01C3350F4442443940C
:10034000410E27E00BC0183038F027E017E005C059
:1003500027E09CE3492E02C0212F412C560184E066
:10036000A80EB11CF6016081718182819381042DF8
:10037000A3010E942A0D6C01F981FC87F0FF02C0E5
:10038000F3FF06C091FC06C092FE06C000E205C065
:100390000DE203C00BE201C000E08C858C7019F007
:1003A00001115AC29BC297FE10C04C0CFC85F4FF91
:1003B00004C08A81813309F44A94141474F528E046
:1003C000241578F588E0482E2CC096FC2AC0812F91
:1003D00090E08C159D059CF03CEFC3163FEFD306D3
:1003E00074F0892D8068982E0AC0E2E0F0E0EC0FEE
:1003F000FD1FE10FF11D8081803319F4115011119F
:10040000F4CF97FE0EC044244394410E812F90E018
:10041000C816D9062CF41C1904C04424439401C006
:1004200010E097FE06C01C141D0434F4C6010196AA
:1004300005C085E090E002C081E090E001110196E6
:10044000112331F0212F30E02F5F3F4F820F931F98
:10045000252D30E08217930714F4581A01C0512C4F
:10046000892D897049F4552039F0B70180E290E078
:100470000E94480E5A94F7CF002329F0B701802F2D
:1004800090E00E94480E93FC09C0552039F0B70156
:1004900080E390E00E94480E5A94F7CF97FE4CC03C
:1004A0004601D7FE02C0812C912CC60188199909FA
:1004B000F301E80FF91FFE87ED8796012419310932
:1004C000388B2F87012F10E01195019511093FEF0F
:1004D0008316930629F4B7018EE290E00E94480E3D
:1004E000C814D9044CF08F8598898815990524F48F
:1004F000ED85FE85818101C080E3F1E08F1A9108CE
:100500002D853E852F5F3F4F3E872D8780169106B4
:100510002CF0B70190E00E94480ED9CFC814D9043E
:1005200041F49A81963320F4953319F43C8534FFD5
:1005300081E3B70190E04EC08A81813319F09C8538
:100540009F7E9C87B70190E00E94480E111105C064
:1005500094FC18C085E690E017C0B7018EE290E0E9
:100560000E94480E1E5F82E001E0080FF301E80FD1
:10057000F11D8081B70190E00E94480E802F011389
:10058000F3CFE6CF85E490E0B7010E94480ED7FC98
:1005900006C0C114D10441F4EC85E4FF05C0D19438
:1005A000C194D1088DE201C08BE2B70190E00E94B6
:1005B000480E80E32AE0C216D1042CF08F5FFAE0E7
:1005C000CF1AD108F7CFB70190E00E94480EB701CB
:1005D000C601C0960E94480E54C1833631F083375D
:1005E00079F0833509F056C020C0560132E0A30EE1
:1005F000B11CF6018081898301E010E0630112C023
:100600005601F2E0AF0EB11CF601C080D18096FE1B
:1006100003C0612F70E002C06FEF7FEFC6010E9440
:10062000230E8C01F92DFF7714C0560122E0A20E93
:10063000B11CF601C080D18096FE03C0612F70E02E
:1006400002C06FEF7FEFC6010E94020E8C01F92DF0
:10065000F0689F2EF3FD1AC0852D90E0081719074A
:10066000A8F4B70180E290E00E94480E5A94F4CFBB
:10067000F60197FC859197FE81916F01B70190E09B
:100680000E94480E51105A9401501109011511058C
:1006900079F7F7C0843611F0893661F5560197FE77
:1006A00009C024E0A20EB11CF60160817181828133
:1006B00093810AC0F2E0AF0EB11CF6016081718136
:1006C000072E000C880B990BF92DFF769F2E97FFB4
:1006D00009C090958095709561957F4F8F4F9F4F82
:1006E000F0689F2E2AE030E0A3010E94BD0EC82EC4
:1006F000C6183FC0092D853721F40F7E2AE030E06F
:100700001DC0097F8F3691F018F4883559F0C3C0A9
:10071000803719F0883711F0BEC0006104FF09C0AE
:10072000046007C094FE08C0066006C028E030E000
:1007300005C020E130E002C020E132E0560107FFB1
:1007400009C084E0A80EB11CF6016081718182812C
:10075000938108C0F2E0AF0EB11CF6016081718197
:1007600080E090E0A3010E94BD0EC82EC6180F774E
:10077000902E96FE0BC0092D0E7FC11650F494FEEC
:100780000AC092FC08C0092D0E7E05C0DC2C092D84
:1007900003C0DC2C01C0D12E04FF0DC0FE01EC0D06
:1007A000F11D8081803311F4097E09C002FF06C06B
:1007B000D394D39404C0802F867809F0D39403FD9A
:1007C00011C000FF06C01C2DD51480F4150D1D1995
:1007D0000DC0D51458F4B70180E290E00E94480E95
:1007E000D394F7CFD51410F45D1801C0512C04FF39
:1007F00010C0B70180E390E00E94480E02FF17C0CE
:1008000001FD03C088E790E002C088E590E0B701F1
:100810000CC0802F867859F001FF02C08BE201C026
:1008200080E207FD8DE2B70190E00E94480EC116FC
:1008300038F4B70180E390E00E94480E1150F7CFE2
:10084000CA94F301EC0DF11D8081B70190E00E9484
:10085000480EC110F5CF15C0F4E0F51560F584E041
:10086000581A93FE1FC0011127C02C8523FF2AC0F0
:100870000CE810E0392D3071932EF801849181112C
:1008800024C0552009F4E4CCB70180E290E00E9436
:10089000480E5A94F6CFF7018681978126C08FEFD4
:1008A0009FEF23C0B70180E290E00E94480E5A9467
:1008B0005110F8CFD8CF512CB701802F90E00E9473
:1008C000480ED3CF00E910E0D5CF91108052B70188
:1008D00090E00E94480E0F5F1F4FCFCF23E02515F9
:1008E00010F483E0BDCF512CC0CF60960FB6F894C2
:1008F000DEBF0FBECDBFDF91CF911F910F91FF9053
:10090000EF90DF90CF90BF90AF909F908F907F90AF
:100910006F905F904F903F902F9008952FEF8FEF43
:100920009CE2215080409040E1F700C0000010920E
:1009300072010895809172010895AF92BF92CF9293
:10094000DF92EF92FF920F931F93CF93DF9300D02C
:1009500000D01F92CDB7DEB7FE01319625E0DF0152
:100960001D922A95E9F710927201209162002D7F65
:100970002093620020916100226020936100AFEF1C
:10098000BFE81197F1F700C00000209162002260DB
:1009900020936200209161002D7F209361002FE160
:1009A000019B08C0B5E0BA95F1F72150C9F724E0E2
:1009B0002093720120917201211116C023E3019945
:1009C00008C035E03A95F1F72150C9F724E02093AB
:1009D000720123E3019B08C045E04A95F1F72150DD
:1009E000C9F724E0209372012091720121113FC0C8
:1009F00030E0C12CD12C7601C39444E0A42E27E032
:100A000044E2019909C055E05A95F1F74150C9F700
:100A1000A09272012FEF35E040917201411121C087
:100A2000A6E5AA95F1F70000019B11C08F01030F05
:100A3000111DD801BC90B701A601022E04C0440FBD
:100A4000551F661F771F0A94D2F74B294C9343E337
:100A5000019B07C0B5E0BA95F1F74150C9F7A092E4
:100A60007201215027FFCCCF3F5F353040F22091FB
:100A70007201211116C039812A81230F3B81230F76
:100A80003C81230F3D81231721F083E08093720185
:100A900008C0DC01CE01059621912D93E817F907D6
:100AA000D9F7809172010F900F900F900F900F90D7
:100AB000DF91CF911F910F91FF90EF90DF90CF903A
:100AC000BF90AF9008958F929F92AF92BF92CF92B6
:100AD000DF92EF92FF920F931F93CF93DF9300D09B
:100AE00000D0CDB7DEB78C017B0119821A821B8240
:100AF0001C82CE0101960E949D04811172C08C81DE
:100B00006B817C817627672776279B8197FF0FC0B3
:100B10009F77682F70E0792B072E000C880B990BBC
:100B20000E94CB0A20E030E040E251EC0AC0072EE0
:100B3000000C880B990B0E94CB0A20E030E040E2C9
:100B400051E40E94210AF8016083718382839383B8
:100B500069817A81762767277627072E000C880B14
:100B6000990B0E94CB0A20E030E040E251E40E9461
:100B7000210A4B015C01F7016083718382839383B7
:100B8000F801C080D180E280F38020E030E040E2D4
:100B900052ECC701B6010E941C0A87FD0AC020E082
:100BA00030E040EA52E4C701B6010E947B0B181600
:100BB00014F482E014C020E030E0A901C501B401C2
:100BC0000E941C0A87FD0AC020E030E048EC52E495
:100BD000C501B4010E947B0B18161CF481E08093C0
:100BE0007201809172010F900F900F900F90DF9122
:100BF000CF911F910F91FF90EF90DF90CF90BF901A
:100C0000AF909F908F90089560E070E00C94630522
:100C1000BC0180E090E00C946305EF92FF920F938B
:100C20001F93CF93DF9300D000D0CDB7DEB78C01F8
:100C30007B0119821A821B821C82CE0101960E94BE
:100C40009D04811115C08B81F80180838C81818383
:100C50008981F70180839A819183F8019081913590
:100C600010F082E003C0853618F081E080937201B5
:100C7000809172010F900F900F900F90DF91CF91A4
:100C80001F910F91FF90EF90089526E636E646EE0D
:100C90005FE30E94800B20E030E040E052E40E94DD
:100CA000B009089523E333E948E853E40E94B0090A
:100CB00008950E943D090E94D0080E9444090E94A4
:100CC00051090E943309789481E40E94940986E5D1
:100CD0000E94940982E50E9494098DE00E94940983
:100CE0008AE00E9494090E94FD0861E081E00E9470
:100CF000F20888E091E09F938F930E941B092FEFE9
:100D00008FE39BE0215080409040E1F700C000005D
:100D10000F900F90FFCF1F920F920FB60F921124DA
:100D20000BB60F92CF92DF92EF92FF922F933F93E9
:100D30004F935F936F937F938F939F93AF93BF93E3
:100D4000EF93FF9364E671E08DE591E00E94630507
:100D50000E949A04811191C098B380E4892788BBCE
:100D600020E030E048E452E460915D0170915E0162
:100D700080915F01909160010E947B0B18160CF42A
:100D8000C798C0905D01D0905E01E0905F01F09047
:100D90006001C701B6010E949A0A60936A0170E07F
:100DA00080E090E00E94CB0A9B01AC01C701B60134
:100DB0000E94AF0920E030E040E251E40E94800B45
:100DC0000E94930A60936B01C0906401D09065010A
:100DD000E0906601F0906701C701B6010E949A0A8F
:100DE00060936C0170E080E090E00E94CB0A9B0170
:100DF000AC01C701B6010E94AF0920E030E040E23B
:100E000051E40E94800B0E94930A60935B017093EF
:100E10005C0160936D010E94FD0861E081E00E9429
:100E2000F20880916B011F928F9380916A011F924B
:100E30008F9381E191E09F938F930E941B0961E062
:100E400082E00E94F20880916D011F928F93809141
:100E50006C011F928F938FE191E09F938F930E947B
:100E60001B098AE691E00E9498098DB79EB70C96FF
:100E70000FB6F8949EBF0FBE8DBFFF91EF91BF914B
:100E8000AF919F918F917F916F915F914F913F9122
:100E90002F91FF90EF90DF90CF900F900BBE0F90AF
:100EA0000FBE0F901F9018951F920F920FB60F92C2
:100EB00011240BB60F922F933F934F935F936F9331
:100EC0007F938F939F93AF93BF93CF93DF93EF93D2
:100ED000FF930E94AB0980936301882309F40EC13C
:100EE000409175015091760120916101309162012C
:100EF000B9016F5F7F4F7093620160936101FA01E6
:100F0000E20FF31F8083E0916101F091620131975C
:100F10008091750190917601E80FF91F80818E37DD
:100F200009F0ECC0A0916E01B0916F018C918083AB
:100F3000C0917501D09176016DE271E0CE010E9401
:100F40002E0E892B11F0C798C5C063E371E0CE0166
:100F50000E942E0E892B11F0C79ABCC06AE371E083
:100F6000CE010E942E0E892B11F0C69AB3C060E408
:100F700071E0CE010E942E0E892B11F0C698AAC0F6
:100F8000FE0101900020E9F73197EC1BFD0B7197F2
:100F900008F48AC040E150E0BE0180916801909160
:100FA00069010E94140EE0916E01F0916F01808141
:100FB000E0916801F0916901808BE0917501F091F9
:100FC0007601DF010D900020E9F7AD014E1B5F0BAC
:100FD00041515109BF01605F7F4F80917301909132
:100FE00074010E94140EA0917501B0917601FD016B
:100FF00001900020E9F73197EA1BFB0BA0916E01ED
:10100000B0916F018C912091730130917401E20FC6
:10101000F31F709780830E94FD0861E081E00E94C9
:10102000F208809169018F93809168018F93C7E4E2
:10103000D1E0DF93CF930E941B0961E082E00E9420
:10104000F208809174018F93809173018F93DF93E5
:10105000CF930E941B0980916801909169010E94C1
:10106000A10C80917301909174010E94A10C61E028
:1010700070E084E690E00E94ED0B9093690180930C
:10108000680161E070E084E690E00E94ED0B9093CF
:101090007401809373018DB79EB708960FB6F894CC
:1010A0009EBF0FBE8DBF16C00E94FD0861E081E0AB
:1010B0000E94F208809176018F93809175018F9341
:1010C00087E491E09F938F930E941B090F900F90EC
:1010D0000F900F9010926201109261018091750142
:1010E000909176010E94A10C61E070E084E690E0AE
:1010F0000E94ED0B9093760180937501FF91EF9123
:10110000DF91CF91BF91AF919F918F917F916F911F
:101110005F914F913F912F910F900BBE0F900FBE9B
:101120000F901F9018958BB3806F8BBB8AB38F7015
:101130008ABBDA9ADA9A29B3DA98DA9ADA9A99B300
:10114000DA98207F892F82958F70822B08952BB398
:101150002F70982F907F922B9BBBDA9ADA9830E110
:10116000839FC0011124822B8BBBDA9ADA980895F1
:101170008BBBDA9ADA980895CF93DF931F92CDB79D
:10118000DEB7D898D99A0E9493088983898187FD10
:10119000F8CFD9988FEF8ABB0F90DF91CF91089548
:1011A0008FEF8ABB8ABBD898D998DA98DA9ADD9AF9
:1011B000DA980E94BC0888E20E94A7080E94BC0836
:1011C000D8988EE00E94A7080E94BC08D89886E0B4
:1011D0000E94A7080C94BC08D89882E00E94A70837
:1011E0000C94BC08D89890E4899F600D1124862F38
:1011F000815C0E94A7080C94BC08D89881E00E94EA
:10120000A7080C94BC08D89A0E94A7080C94BC08A4
:101210000F931F93CF938C01C0E0F801EC0FF11DE9
:101220008081882321F00E940309CF5FF6CFCF9100
:101230001F910F910895CF93DF93CDB7DEB79E0135
:101240002B5F3F4FF901419151919F0161E170E0A6
:101250008AE491E00E94840E8AE491E00E940809E9
:10126000DF91CF9108951092900083E089B986E0D4
:101270008093950088E98AB90895BE9ABF9AC69866
:10128000C79ABD98C59A08951FBC85E08EBD1DBC48
:101290001CBC80E29CE19BBD8ABD87B7806187BF93
:1012A00008951092630110925D0110925E011092F8
:1012B0005F0110926001109264011092650110921A
:1012C00066011092670110925C0110925B0161E06F
:1012D00070E084E690E00E94ED0B9093760180939D
:1012E000750161E070E084E690E00E94ED0B909360
:1012F00069018093680161E070E084E690E00E94FB
:10130000ED0B909374018093730186E091E09093CC
:101310006F0180936E011092710110927001109212
:1013200062011092610108955D9BFECF8CB9089512
:101330000F931F93CF93DF93EC018C010C5F1F4F32
:1013400089910E949409C017D107D1F7DF91CF91FD
:101350001F910F9108955F9BFECF8CB10895505857
:10136000BB27AA270E94C7090C94410B0E94330B8C
:1013700038F00E943A0B20F039F49F3F19F426F41C
:101380000C94300B0EF4E095E7FB0C942A0BE92F3C
:101390000E94520B58F3BA17620773078407950728
:1013A00020F079F4A6F50C94740B0EF4E0950B2E56
:1013B000BA2FA02D0B01B90190010C01CA01A001A7
:1013C0001124FF27591B99F0593F50F4503E68F102
:1013D0001A16F040A22F232F342F4427585FF3CF43
:1013E000469537952795A795F0405395C9F77EF414
:1013F0001F16BA0B620B730B840BBAF09150A1F05D
:10140000FF0FBB1F661F771F881FC2F70EC0BA0FE2
:10141000621F731F841F48F4879577956795B7956A
:10142000F7959E3F08F0B0CF9395880F08F0992765
:10143000EE0F9795879508950E94060B08F481E0BA
:1014400008950E94350A0C94410B0E943A0B58F003
:101450000E94330B40F029F45F3F29F00C942A0BD3
:1014600051110C94750B0C94300B0E94520B68F3C5
:101470009923B1F3552391F3951B550BBB27AA274D
:1014800062177307840738F09F5F5F4F220F331F87
:10149000441FAA1FA9F335D00E2E3AF0E0E832D04F
:1014A00091505040E695001CCAF72BD0FE2F29D052
:1014B000660F771F881FBB1F261737074807AB0724
:1014C000B0E809F0BB0B802DBF01FF2793585F4F99
:1014D0003AF09E3F510578F00C942A0B0C94750B52
:1014E0005F3FE4F3983ED4F3869577956795B7957B
:1014F000F7959F5FC9F7880F911D9695879597F986
:101500000895E1E0660F771F881FBB1F62177307FE
:101510008407BA0720F0621B730B840BBA0BEE1F13
:1015200088F7E09508950E949A0A6894B1110C9486
:10153000750B08950E945A0B88F09F5798F0B92FA9
:101540009927B751B0F0E1F0660F771F881F991FF8
:101550001AF0BA95C9F714C0B13091F00E94740B1B
:10156000B1E008950C94740B672F782F8827B85F2B
:1015700039F0B93FCCF3869577956795B395D9F750
:101580003EF490958095709561957F4F8F4F9F4F5A
:101590000895E89409C097FB3EF490958095709566
:1015A00061957F4F8F4F9F4F9923A9F0F92F96E9AF
:1015B000BB279395F695879577956795B795F11124
:1015C000F8CFFAF4BB0F11F460FF1BC06F5F7F4FC1
:1015D0008F4F9F4F16C0882311F096E911C07723D3
:1015E00021F09EE8872F762F05C0662371F096E8DC
:1015F000862F70E060E02AF09A95660F771F881FAB
:10160000DAF7880F9695879597F90895990F00084E
:10161000550FAA0BE0E8FEEF16161706E807F907C4
:10162000C0F012161306E407F50798F0621B730B5F
:10163000840B950B39F40A2661F0232B242B252BE0
:1016400021F408950A2609F4A140A6958FEF811D83
:10165000811D089597F99F6780E870E060E0089524
:101660009FEF80EC089500240A94161617061806BA
:101670000906089500240A94121613061406050696
:101680000895092E0394000C11F4882352F0BB0F27
:1016900040F4BF2B11F460FF04C06F5F7F4F8F4F8A
:1016A0009F4F089557FD9058440F551F59F05F3FC5
:1016B00071F04795880F97FB991F61F09F3F79F074
:1016C00087950895121613061406551FF2CF4695F6
:1016D000F1DF08C0161617061806991FF1CF869578
:1016E0007105610508940895E894BB27662777275C
:1016F000CB0197F908950E94060B08F48FEF089527
:101700000E94930B0C94410B0E94330B38F00E9403
:101710003A0B20F0952311F00C942A0B0C94300B0B
:1017200011240C94750B0E94520B70F3959FC1F31A
:10173000950F50E0551F629FF001729FBB27F00D7F
:10174000B11D639FAA27F00DB11DAA1F649F6627D4
:10175000B00DA11D661F829F2227B00DA11D621F23
:10176000739FB00DA11D621F839FA00D611D221FDD
:10177000749F3327A00D611D231F849F600D211DC1
:10178000822F762F6A2F11249F5750409AF0F1F044
:1017900088234AF0EE0FFF1FBB1F661F771F881FAD
:1017A00091505040A9F79E3F510580F00C942A0BB0
:1017B0000C94750B5F3FE4F3983ED4F386957795D0
:1017C0006795B795F795E7959F5FC1F7FE2B880F53
:1017D000911D9695879597F908950F931F93CF9331
:1017E000DF93869F8001879F100D969F100D112417
:1017F000C8010E94090CEC01009729F0A80160E0E3
:1018000070E00E940D0ECE01DF91CF911F910F91DC
:1018100008950F931F93CF93DF938230910510F4B7
:1018200082E090E0E0917901F0917A0120E030E0EF
:10183000A0E0B0E0309719F140815181028113811D
:1018400048175907C8F08417950769F4109731F0C5
:1018500012960C93129713961C9327C0009379014C
:1018600010937A0122C02115310519F04217530750
:1018700018F49A01BD01EF01DF01F801DBCF21155A
:101880003105F9F0281B390B2430310580F48A81A9
:101890009B816115710521F0FB019383828304C054
:1018A00090937A0180937901FE01329644C0FE0143
:1018B000E20FF31F819391932250310939832883DA
:1018C0003AC02091770130917801232B41F4209187
:1018D0000201309103013093780120937701209128
:1018E0000001309101012115310541F42DB73EB7BA
:1018F0004091040150910501241B350BE0917701C3
:10190000F0917801E217F307A0F42E1B3F0B281784
:10191000390778F0AC014E5F5F4F2417350748F068
:101920004E0F5F1F509378014093770181939193FD
:1019300002C0E0E0F0E0CF01DF91CF911F910F9165
:101940000895CF93DF93009709F481C0FC0132978B
:1019500013821282A0917901B0917A01109781F4DB
:1019600020813181820F931F20917701309178017E
:101970002817390751F5F0937801E093770167C094
:10198000ED0120E030E0CE17DF0740F44A815B81B3
:101990009E0141155105F1F0EA01F5CFD383C283D1
:1019A00040815181840F951FC817D90759F4888148
:1019B0009981840F951F0296918380838A819B81F0
:1019C000938382832115310529F4F0937A01E09302
:1019D00079013DC0E901FB83EA8349915991C40F24
:1019E000D51FEC17FD0761F480819181840F951F4D
:1019F0000296E90199838883828193819B838A83FC
:101A0000E0E0F0E012968D919C911397009719F009
:101A1000FD01DC01F7CF8D919C9111979D012E5F07
:101A20003F4F820F931F2091770130917801281743
:101A3000390769F4309729F410927A0110927901EC
:101A400002C013821282B0937801A0937701DF91D4
:101A5000CF910895283008F027E03327DA01990F55
:101A6000311D87FD916000966105710539F4326082
:101A70002E5F3D9330E32A95E1F708959F3F30F0C4
:101A800080387105610509F03C5F3C5F3D93913002
:101A900008F08068911DDF93CF931F930F93FF92FF
:101AA000EF92192F987F9695E92F96959695E90FC5
:101AB000FF27E251FF4F99273327EE24FF24A70188
:101AC000E70105900894079428F4360FE71EF81EE6
:101AD000491F511D660F771F881F991F0694A1F794
:101AE0000590079428F4E70EF81E491F561FC11DE4
:101AF000770F881F991F661F0694A1F7059007941A
:101B000028F4F80E491F561FC71FD11D880F991FB3
:101B1000661F771F0694A1F70590079420F4490FDC
:101B2000561FC71FD81F990F661F771F881F06945F
:101B3000A9F784911095177041F0D695C7955795E0
:101B40004795F794E7941A95C1F7E4E9F0E06894B3
:101B50001590159135916591959105907FE273955A
:101B6000E118F10A430B560BC90BD009C0F7E10C81
:101B7000F11E431F561FC91FD01D7EF4703311F490
:101B80008A95E6CFE894015030F0080F0AF4002758
:101B9000021708F4202F2395022F7A3328F079E3D7
:101BA0007D932A95E9F710C07D932A9589F60694CE
:101BB00097956795379517951794E118F10A430B98
:101BC000560BC90BD00998F023957E9173957A3303
:101BD00008F070E37C932013B8F77E9170617D93D9
:101BE00030F0839571E37D9370E32A95E1F711243A
:101BF000EF90FF900F911F91CF91DF91992787FD73
:101C000090950895FC010590615070400110D8F73F
:101C1000809590958E0F9F1F0895DC0101C06D93F4
:101C200041505040E0F70895FB01DC014150504025
:101C300048F001900D920020C9F701C01D9241505B
:101C40005040E0F70895FC01615070400190011090
:101C5000D8F7809590958E0F9F1F0895FB015191A5
:101C60005523A9F0BF01DC014D9145174111E1F762
:101C700059F4CD010190002049F04D9140154111DA
:101C8000C9F3FB014111EFCF81E090E00197089586
:101C90000F931F93CF93DF93FB01238121FD03C09B
:101CA0008FEF9FEF2CC022FF16C046815781248101
:101CB00035814217530744F4A081B1819D012F5F04
:101CC0003F4F318320838C93268137812F5F3F4F95
:101CD0003783268314C08B01EC01FB010084F1855E
:101CE000E02D0995892BE1F6D80116968D919C91EE
:101CF0001797019617969C938E931697CE01DF91B6
:101D0000CF911F910F9108950F931F93CF93DF935E
:101D1000CDB7DEB72E970FB6F894DEBF0FBECDBF9E
:101D20008C01FA0186E08C831A83098377FF02C055
:101D300060E070E8CB0101979E838D83A901BF010C
:101D4000CE0101960E94E8004D815E8157FD0AC0D8
:101D50002F813885421753070CF49A01F801E20FDE
:101D6000F31F10822E960FB6F894DEBF0FBECDBFC4
:101D7000DF91CF911F910F910895FA01AA27283082
:101D800051F1203181F1E8946F936E7F6E5F7F4F48
:101D90008F4F9F4FAF4FB1E03ED0B4E03CD0670FC4
:101DA000781F891F9A1FA11D680F791F8A1F911D17
:101DB000A11D6A0F711D811D911DA11D20D009F467
:101DC00068943F912AE0269F11243019305D3193A9
:101DD000DEF6CF010895462F4770405D4193B3E092
:101DE0000FD0C9F7F6CF462F4F70405D4A3318F039
:101DF000495D31FD4052419302D0A9F7EACFB4E0EA
:101E0000A6959795879577956795BA95C9F70097A1
:101E10006105710508959B01AC010A2E0694579542
:101E2000479537952795BA95C9F7620F731F841F99
:0A1E3000951FA01D0895F894FFCF40
:101E3A0000007B012000000054657374204C434469
:101E4A000054656D70203A2025642E2564300048C0
:101E5A00756D69203A2025642E2564300062757AF2
:101E6A004F6E0062757A4F6666006C65644F6E004D
:0A1E7A006C65644F66660025730076
:00000001FF
