:100000000C9446000C9465000C9465000C946500FB
:100010000C9465000C9465000C9465000C946500CC
:100020000C9465000C9465000C9465000C946500BC
:100030000C9465000C9465000C9465000C946500AC
:100040000C9465000C9465000C9405020C946500FA
:100050000C9465000C9465000C9465000C9465008C
:100060000C9465000C9465000C9465000C9465007C
:100070000C9465000C9465000C9465000C9465006C
:100080000C9465000C9465000C94650011241FBE4F
:10009000CFEFD0E1DEBFCDBF11E0A0E0B1E0EAEEEE
:1000A000FBE000E00BBF02C007900D92A432B10745
:1000B000D9F721E0A4E2B1E001C01D92A833B20754
:1000C000E1F70E9470010C94F3050C94000010926B
:1000D000900083E089B986E08093950088E98AB929
:1000E0000895BE9ABF9AC698C79ABD98C59A0895B2
:1000F0005D9BFECF8CB908950F931F93CF93DF9331
:10010000EC01FC0101900020E9F7CF0102978C1768
:100110009D0741F488818983E0910001F0910101FC
:10012000808188838E01FE0101900020E9F73197DC
:10013000EC1BFD0BC8018C1B9D0B8E179F0730F429
:10014000F80181918F010E947800EDCFDF91CF916E
:100150001F910F9108950C9478005F9BFECF8CB196
:10016000089597B1892B87B9369A349BFECF2FEF2C
:100170008FE191E0215080409040E1F700C0000005
:1001800084B195B108950F931F93CF93DF9300D05F
:1001900000D01F92CDB7DEB7682FFE01319685E003
:1001A000DF011D928A95E9F780916100826080935A
:1001B000610080916200826080936200BFEF2FE354
:1001C00082E0B15020408040E1F700C00000809103
:1001D00062008D7F80936200A9E9B1E81197F1F781
:1001E00000C090916200926090936200B2E0BA9574
:1001F000F1F700C0909161009D7F9093610020E62F
:100200002A95F1F7019B02C08FEF55C084EC8A95C7
:10021000F1F700C0019BF8CF94EC9A95F1F700C07C
:10022000AE014A5F5F4FA1E0B0E027E030E090E030
:10023000019BFECF8AE48A95F1F7019B07C08D01EF
:10024000022E01C0000F0A94EAF7902B0199FECF0D
:100250002150310968F79193E417F50731F7909130
:10026000610092609093610090916200926090931F
:1002700062009FEFAFE3B2E09150A040B040E1F7E1
:1002800000C0000089819B814A81282F30E0240F23
:10029000311D290F311D4C81240F311D4D8150E03E
:1002A0002417350709F0B0CF662321F0613009F03B
:1002B000ABCF01C0892F0F900F900F900F900F9030
:1002C000DF91CF911F910F910895CF93DF93EB01B1
:1002D0000E94C3008F3F09F08883DF91CF9108957A
:1002E000CF93DF9300D0CDB7DEB70E9471000E949C
:1002F0009D020E94670081E40E94780086E50E94CA
:10030000780082E50E9478008DE00E9478008AE003
:100310000E9478000E94CA0261E081E00E94BF0250
:1003200082E091E09F938F930E94E8022FEF8FE38A
:100330009BE0215080409040E1F700C000001A820D
:1003400019820E94CA0261E081E00E94BF028A8194
:100350001F928F9387E091E09F938F930E94E80212
:1003600061E082E00E94BF0289811F928F9380E149
:1003700091E09F938F930E94E8022FEF8FE39BE021
:10038000215080409040E1F700C0000078940FB603
:10039000F894DEBF0FBECDBF87E0E82E81E0F82ED7
:1003A00000E111E00E94CA02BE016E5F7F4F80E053
:1003B0000E946501BE016F5F7F4F81E00E94650171
:1003C00061E081E00E94BF028A811F928F93FF92B9
:1003D000EF920E94E80261E082E00E94BF02898100
:1003E0001F928F931F930F930E94E8029FEF2FE3BA
:1003F0008BE0915020408040E1F700C000000FB634
:10040000F894DEBF0FBECDBFCDCF1F920F920FB6B7
:100410000F9211240BB60F922F933F934F935F933C
:100420006F937F938F939F93AF93BF93EF93FF93BC
:100430000E94AD008093350180913501882349F1F8
:100440000E94CA0280913501823311F4C69A0DC010
:1004500080913501813311F4C69807C08091350130
:10046000823619F488B3805888BB0E94CA0261E0C2
:1004700081E00E94BF02809135011F928F9389E134
:1004800091E09F938F930E94E8020F900F900F903E
:100490000F90809135010E947800FF91EF91BF91FC
:1004A000AF919F918F917F916F915F914F913F910C
:1004B0002F910F900BBE0F900FBE0F901F901895AD
:1004C0008BB3806F8BBB8AB38F708ABBDA9ADA9A50
:1004D00029B3DA98DA9ADA9A99B3DA98207F892FD1
:1004E00082958F70822B08952BB32F70982F907F59
:1004F000922B9BBBDA9ADA9830E1839FC0011124DA
:10050000822B8BBBDA9ADA9808958BBBDA9ADA9849
:100510000895CF93DF931F92CDB7DEB7D898D99ABD
:100520000E9460028983898187FDF8CFD9988FEF77
:100530008ABB0F90DF91CF9108958FEF8ABB8ABB62
:10054000D898D998DA98DA9ADD9ADA980E948902CE
:1005500088E20E9474020E948902D8988EE00E946C
:1005600074020E948902D89886E00E9474020C945A
:100570008902D89882E00E9474020C948902D8986B
:1005800090E4899F600D1124862F815C0E94740283
:100590000C948902D89881E00E9474020C9489021C
:1005A000D89A0E9474020C9489020F931F93CF93E0
:1005B0008C01C0E0F801EC0FF11D8081882321F04F
:1005C0000E94D002CF5FF6CFCF911F910F91089577
:1005D000CF93DF93CDB7DEB79E012B5F3F4FF9017D
:1005E000419151919F0161E170E084E291E00E94AC
:1005F000000384E291E00E94D502DF91CF9108953B
:100600000F931F93CF93DF93CDB7DEB72E970FB61F
:10061000F894DEBF0FBECDBF8C01FA0186E08C835B
:100620001A83098377FF02C060E070E8CB0101976D
:100630009E838D83A901BF01CE0101960E943903DB
:100640004D815E8157FD0AC02F81388542175307BF
:100650000CF49A01F801E20FF31F10822E960FB6E8
:10066000F894DEBF0FBECDBFDF91CF911F910F91E8
:1006700008952F923F924F925F926F927F928F9246
:100680009F92AF92BF92CF92DF92EF92FF920F9321
:100690001F93CF93DF93CDB7DEB72B970FB6F894A8
:1006A000DEBF0FBECDBF6C017B018A01FC0117824A
:1006B0001682838181FFCCC1CE0101963C01F601F7
:1006C0009381F70193FD859193FF81917F018823A9
:1006D00009F4BAC1853239F493FD859193FF819174
:1006E0007F01853229F4B60190E00E945905E7CFD9
:1006F000912C212C312CFFE1F315D8F08B3279F0BD
:1007000038F4803279F08332A1F4232D20611DC0AA
:100710008D3261F0803369F4232D216016C0832D62
:100720008260382EE32DE4603E2E2AC0F32DF8605F
:100730001DC037FC2DC020ED280F2A3040F08E322E
:10074000B9F436FC81C1232D2064322E19C036FE47
:1007500006C08AE0989E200D1124922E11C0EAE076
:100760002E9E200D1124222EF32DF0623F2E08C064
:100770008C3621F4832D8068382E02C0883641F4EF
:10078000F70193FD859193FF81917F018111B3CF93
:10079000982F9F7D9554933028F40C5F1F4F9FE353
:1007A00099830DC0833631F0833771F0833509F0BA
:1007B00059C021C0F801808189830E5F1F4F8824B2
:1007C0008394912C530113C02801F2E04F0E511C69
:1007D000F801A080B18036FE03C0692D70E002C030
:1007E0006FEF7FEFC5010E944E054C018201F32D92
:1007F000FF773F2E16C0280122E0420E511CF8015F
:10080000A080B18036FE03C0692D70E002C06FEF9A
:100810007FEFC5010E9443054C01F32DF0683F2E88
:10082000820133FC1BC0822D90E088169906B0F43B
:10083000B60180E290E00E9459052A94F4CFF501B8
:1008400037FC859137FE81915F01B60190E00E94EF
:10085000590521102A9421E0821A910881149104EB
:1008600071F7E8C0843611F0893641F5F80137FE9A
:1008700007C060817181828193810C5F1F4F08C026
:1008800060817181072E000C880B990B0E5F1F4F42
:10089000F32DFF763F2E97FF09C0909580957095B8
:1008A00061957F4F8F4F9F4FF0683F2E2AE030E0D9
:1008B000A3010E949505882E861845C0853731F41E
:1008C000232D2F7EB22E2AE030E025C0932D997F74
:1008D000B92E8F36C1F018F4883579F0B5C080375D
:1008E00019F0883721F0B0C0E92FE061BE2EB4FEC8
:1008F0000DC0FB2DF460BF2E09C034FE0AC0292FA5
:100900002660B22E06C028E030E005C020E130E0CD
:1009100002C020E132E0F801B7FE07C060817181BA
:10092000828193810C5F1F4F06C06081718180E0DE
:1009300090E00E5F1F4FA3010E949505882E861838
:10094000FB2DFF773F2E36FE0DC0232D2E7FA22ECE
:10095000891458F434FE0BC032FC09C0832D8E7EFE
:10096000A82E05C0B82CA32C03C0B82C01C0B92CEC
:10097000A4FE0FC0FE01E80DF11D8081803321F43B
:100980009A2D997EA92E09C0A2FE06C0B394B394F5
:1009900004C08A2D867809F0B394A3FC11C0A0FE90
:1009A00006C0B21488F4280C922C9B180EC0B21406
:1009B00060F4B60180E290E00E945905B394F7CF4D
:1009C000B21418F42B1802C0982C212CA4FE10C0CD
:1009D000B60180E390E00E945905A2FE17C0A1FC79
:1009E00003C088E790E002C088E590E0B6010CC043
:1009F0008A2D867859F0A1FE02C08BE201C080E208
:100A0000A7FC8DE2B60190E00E945905891438F4E4
:100A1000B60180E390E00E9459059A94F7CF8A943A
:100A2000F301E80DF11D8081B60190E00E945905A7
:100A30008110F5CF222009F442CEB60180E290E089
:100A40000E9459052A94F6CFF6018681978102C04B
:100A50008FEF9FEF2B960FB6F894DEBF0FBECDBF82
:100A6000DF91CF911F910F91FF90EF90DF90CF908A
:100A7000BF90AF909F908F907F906F905F904F90BE
:100A80003F902F900895FC01059061507040011037
:100A9000D8F7809590958E0F9F1F0895FC016150A7
:100AA000704001900110D8F7809590958E0F9F1F90
:100AB00008950F931F93CF93DF93FB01238121FDB3
:100AC00003C08FEF9FEF2CC022FF16C046815781D5
:100AD000248135814217530744F4A081B1819D01DF
:100AE0002F5F3F4F318320838C93268137812F5F87
:100AF0003F4F3783268314C08B01EC01FB01008438
:100B0000F185E02D0995892BE1F6D80116968D9196
:100B10009C911797019617969C938E931697CE01EA
:100B2000DF91CF911F910F910895FA01AA272830E4
:100B300051F1203181F1E8946F936E7F6E5F7F4FAA
:100B40008F4F9F4FAF4FB1E03ED0B4E03CD0670F26
:100B5000781F891F9A1FA11D680F791F8A1F911D79
:100B6000A11D6A0F711D811D911DA11D20D009F4C9
:100B700068943F912AE0269F11243019305D31930B
:100B8000DEF6CF010895462F4770405D4193B3E0F4
:100B90000FD0C9F7F6CF462F4F70405D4A3318F09B
:100BA000495D31FD4052419302D0A9F7EACFB4E04C
:100BB000A6959795879577956795BA95C9F7009704
:100BC0006105710508959B01AC010A2E06945795A5
:100BD000479537952795BA95C9F7620F731F841FFC
:0A0BE000951FA01D0895F894FFCFA3
:100BEA002201446174610054656D703A20256400E5
:100BFA0048756D693A20256400446174613A20257C
:040C0A006300300053
:00000001FF
