:1000000045C0000053C0000051C000004FC00000B8
:100010004DC000004BC0000049C0000047C00000B8
:1000200045C0000043C0000041C000003FC00000C8
:1000300023C200003BC0000039C0000037C00000F0
:1000400035C0000033C000001FC100002FC00000F9
:100050002DC000002BC0000029C0000027C00000F8
:1000600025C0000023C0000021C000001FC0000008
:100070001DC000001BC0000019C0000017C0000018
:1000800015C0000013C0000011C0000011241FBEE5
:10009000CFEFD0E1DEBFCDBF21E0A0E0B1E001C0F5
:1000A0001D92A930B207E1F7CBD079C2A9CF5D9BF1
:1000B000FECF8CB9089590919B0095FFFCCF809363
:1000C0009C0008950F931F93CF93DF938C01C0E0A2
:1000D000D0E006C0F801EC0FFD1F8081ECDF219617
:1000E000F80101900020E9F73197E01BF10BCE17E2
:1000F000DF0780F3DF91CF911F910F910895EF9269
:10010000FF920F931F93CF93DF938C019C01ADEC73
:10011000BCEC03D2AC01569547955695479556953C
:100120004795CA01880F991F440F551F440F551F4B
:10013000440F551F480F591FC801841B950BAC0174
:10014000ECD1EC01D695C795D695C795D695C795B0
:100150009E01E3D1FC01F695E795F695E795F695B6
:10016000E795CF01880F991FEE0FFF1FEE0FFF1FBE
:10017000EE0FFF1FE80FF91FCE018E1B9F0BFC0136
:1001800098013695279536952795ABE7B4E1C5D10B
:100190007C01F694E7949701ADECBCECBED1EC0188
:1001A000D695C795D695C795D695C795CE01880F94
:1001B000991FCC0FDD1FCC0FDD1FCC0FDD1FC80F2B
:1001C000D91FC7018C1B9D0BEC0198013695279513
:1001D0003695279536952795A5ECB0E29ED1929558
:1001E00082958F7089279F70892780618BBB8FECE8
:1001F00097E00197F1F700C00000C062CBBB8FEC25
:1002000097E00197F1F700C00000E064EBBB8FECD2
:1002100097E00197F1F700C0000040684BBB8FECFE
:1002200097E00197F1F700C00000DF91CF911F9197
:100230000F91FF90EF9008951FBC85E08EBD08954B
:10024000FBDF8FEF8ABB87BB1092900083E389B9F5
:1002500010929800809399001BB896E090939500B7
:1002600088E98AB910929B0090939D0080939A0030
:100270008FB583608FBD80EF90E09BBD8ABD87B74F
:10028000806187BF7894FFCF1F920F920FB60F92B5
:1002900011240BB60F922F933F934F935F936F935D
:1002A0007F938F939F93AF93BF93EF93FF938CB103
:1002B0008093040180910401813321F488B38E7FFF
:1002C00088BB17C080910401823321F488B3816018
:1002D00088BB0FC080910401833321F488B38E7FE3
:1002E00088BB07C080910401843319F488B38E7FE2
:1002F00088BB80910401DBDEFF91EF91BF91AF914C
:100300009F918F917F916F915F914F913F912F912D
:100310000F900BBE0F900FBE0F901F901895CF93AC
:10032000DF9300D000D01F92CDB7DEB7682FFE015B
:10033000319695E0DF011D929A95E9F7A1E6B0E0CC
:100340009C9192609C93E2E6F0E0908192609083B1
:100350002FEF80E792E0215080409040E1F700C00D
:10036000000090819D7F90838FE99CE80197F1F7D1
:1003700000C0000090819260908392E09A95F1F71E
:1003800000C09C919D7F9C93A8E6AA95F1F70199E6
:100390005AC0B5EDBA95F1F70000019B56C025EDA6
:1003A0002A95F1F7000070E023C0019BFECFA0E585
:1003B000AA95F1F7019B0CC047E050E0491B510999
:1003C00021E030E002C0220F331F4A95E2F7822B72
:1003D0000199FECF9F5F02C080E090E0983028F343
:1003E000E1E0F0E0EC0FFD1FE70FF11D80837F5F80
:1003F000753090F3E1E6F0E0808182608083E2E690
:10040000F0E0808182608083BFEF20E782E0B1501E
:1004100020408040E1F700C0000099812A8130E04F
:10042000290F311D8B81280F311D4C81240F311D67
:100430004D8150E02417350751F4662359F061309F
:1004400041F08FEF07C08FEF05C08FEF03C08FEF34
:1004500001C0892F0F900F900F900F900F90DF9198
:10046000CF910895CF93DF93EB0159DF8F3F09F0D0
:100470008883DF91CF9108951F920F920FB60F924C
:1004800011240BB60F922F933F934F935F936F936B
:100490007F938F939F93AF93BF93EF93FF9363E00B
:1004A00071E080E0DFDF62E071E081E0DBDF20917E
:1004B00003018091020190E034E6239F800D911D9D
:1004C0001124909301018093000119DE8FEF90E7D2
:1004D00022E0815090402040E1F700C000004AE057
:1004E00065E071E0809100019091010125D085E0E7
:1004F00091E0E8DDFF91EF91BF91AF919F918F91D6
:100500007F916F915F914F913F912F910F900BBE13
:100510000F900FBE0F901F901895A29FB001B39F30
:10052000C001A39F700D811D1124911DB29F700DFC
:10053000811D1124911D0895BB274A3031F4992360
:1005400022F4BDE2909581959F4F01C0BB27FB012E
:100550005527AA27880F991FAA1FA41710F0A41BBC
:1005600083955051B9F7A05DAA3308F0A95DA19316
:10057000009779F7B111B1931192CB0100C0DC0162
:10058000FC01672F71917723E1F7329704C07C91CA
:100590006D9370836291AE17BF07C8F30895F89406
:0205A000FFCF8B
:00000001FF
